:100000000C942A000C9434000C9434000C943400AA
:100010000C9434000C9434000C9434000C94340090
:100020000C9434000C9434000C9434000C94340080
:100030000C9434000C9434000C9434000C94340070
:100040000C9434000C9434000C9434000C94340060
:100050000C94340011241FBECFE5D8E0DEBFCDBF25
:100060000E9458000C941A020C94000087B983EC8B
:1000700099E00197F1F700C00000369A349BFECF5B
:10008000349A84B195B108950E9436009C01220FE4
:10009000331F220F331F820F931F6FEF73E00E94F5
:1000A000F201072E000C880B990B0E948E01089517
:1000B00080EC84BBD0E8C0E215BA81E00E94440025
:1000C00020E030E040E250E40E94ED0188230CF48F
:1000D0008FC0C5BB80E00E9444006B017C0120E022
:1000E00030E0A9010E94ED018823A4F020E030E077
:1000F00040EC5FE3C701B6010E948701882354F4F6
:100100002FE38CEA97E2215080409040E1F700C055
:10011000000063C020E030E040EC5FE3C701B601BF
:100120000E94ED011816A4F420E030E040E250E413
:10013000C701B6010E948701181654F02FEF83ED16
:1001400090E3215080409040E1F700C0000045C09E
:1001500020E030E040E250E4C701B6010E94ED012A
:100160001816A4F420E030E040E650E4C701B601E0
:100170000E948701181654F02FEB8BEF99E3215062
:1001800080409040E1F700C0000027C020E030E050
:1001900040E650E4C701B6010E94ED011816A4F430
:1001A00020E030E040E950E4C701B6010E94870139
:1001B000181654F02FE783E293E4215080409040DA
:1001C000E1F700C0000009C02FE38BE49CE421505C
:1001D00080409040E1F700C0000015BA2FEB87E2A5
:1001E00099E0215080409040E1F700C0000064CFCA
:1001F000D5BB80E00E9444006B017C0120E030E030
:10020000A9010E94ED018823A4F020E030E040EC39
:100210005FE3C701B6010E948701882354F42FE3EE
:100220008CEA97E2215080409040E1F700C0000046
:1002300063C020E030E040EC5FE3C701B6010E94FC
:10024000ED011816A4F420E030E040E250E4C701CC
:10025000B6010E948701181654F02FEF83ED90E34A
:10026000215080409040E1F700C0000045C020E0F0
:1002700030E040E250E4C701B6010E94ED011816DB
:10028000A4F420E030E040E650E4C701B6010E944B
:100290008701181654F02FEB8BEF99E32150804023
:1002A0009040E1F700C0000027C020E030E040E6C9
:1002B00050E4C701B6010E94ED011816A4F420E035
:1002C00030E040E950E4C701B6010E9487011816EA
:1002D00054F02FE783E293E4215080409040E1F70F
:1002E00000C0000009C02FE38BE49CE42150804053
:1002F0009040E1F700C0000015BA2FEB87E299E0CB
:10030000215080409040E1F700C00000D5CE0E940F
:10031000C90108F481E00895E89409C097FB3EF410
:1003200090958095709561957F4F8F4F9F4F992342
:10033000A9F0F92F96E9BB279395F69587957795C0
:100340006795B795F111F8CFFAF4BB0F11F460FF80
:100350001BC06F5F7F4F8F4F9F4F16C0882311F0D8
:1003600096E911C0772321F09EE8872F762F05C0EC
:10037000662371F096E8862F70E060E02AF09A9587
:10038000660F771F881FDAF7880F9695879597F97C
:100390000895990F0008550FAA0BE0E8FEEF161616
:1003A0001706E807F907C0F012161306E407F50769
:1003B00098F0621B730B840B950B39F40A2661F0DD
:1003C000232B242B252B21F408950A2609F4A14080
:1003D000A6958FEF811D811D08950E94C90108F423
:1003E0008FEF089597FB072E16F4009407D077FD42
:1003F00009D00E94060207FC05D03EF49095819535
:100400009F4F0895709561957F4F0895AA1BBB1B60
:1004100051E107C0AA1FBB1FA617B70710F0A61B04
:10042000B70B881F991F5A95A9F780959095BC0125
:08043000CD010895F894FFCFFF
:00000001FF
